:100000000C9462000C948A000C948A000C948A0070
:100010000C948A000C948A000C948A000C948A0038
:100020000C948A000C948A000C948A000C948A0028
:100030000C948A000C948A000C948A000C948A0018
:100040000C9456020C948A000C94C6020C94A002E4
:100050000C948A000C948A000C948A000C948A00F8
:100060000C948A000C948A000000000023002600F3
:10007000290000000000240027002A0000000000E2
:10008000250028002B0004040404040404040202D4
:100090000202020203030303030301020408102007
:1000A0004080010204081020010204081020000012
:1000B0000008000201000003040700000000000027
:1000C0000000A40411241FBECFEFD8E0DEBFCDBFD7
:1000D00011E0A0E0B1E0E8E5FCE002C005900D927F
:1000E000AA33B107D9F721E0AAE3B1E001C01D921C
:1000F000A03EB207E1F710E0C2E6D0E004C02197CD
:10010000FE010E942406C136D107C9F70E943D03B3
:100110000C942A060C94000090E0FC01E255FF4F7D
:100120002491FC01E656FF4F3491FC01EA57FF4F42
:10013000E491EE23C9F0222339F0233001F1A8F431
:10014000213019F1223029F1F0E0EE0FFF1FE458C1
:10015000FF4FA591B4918FB7F894EC91611126C02F
:1001600030953E233C938FBF08952730A9F0283067
:10017000C9F0243049F7809180008F7D03C08091C1
:1001800080008F7780938000DFCF84B58F7784BD28
:10019000DBCF84B58F7DFBCF8091B0008F778093CC
:1001A000B000D2CF8091B0008F7DF9CF3E2BDACF57
:1001B000CF93DF9390E0FC01E656FF4F24918A57DE
:1001C0009F4FFC0184918823D1F090E0880F991F04
:1001D000FC01EE58FF4FA591B491FC01E458FF4F8C
:1001E000C591D49161110EC09FB7F8948C91E22F04
:1001F000E0958E238C932881E223E8839FBFDF91D3
:10020000CF9108958FB7F894EC91E22BEC938FBFC8
:10021000F6CF3FB7F89480913F0190914001A091B3
:100220004101B091420126B5A89B05C02F3F19F0AE
:100230000196A11DB11D3FBFBA2FA92F982F882766
:10024000BC01CD01620F711D811D911D42E0660F41
:10025000771F881F991F4A95D1F70895AF92BF92D3
:10026000CF92DF92EF92FF920F931F93CF93DF9382
:100270006C017B018B01040F151FEB015E01AE18B1
:10028000BF08C017D10759F06991D601ED91FC91D3
:100290000190F081E02DC6010995892B79F7C50100
:1002A000DF91CF911F910F91FF90EF90DF90CF9052
:1002B000BF90AF900895FC01538D448D252F30E001
:1002C000842F90E0821B930B541710F0CF96089563
:1002D00001970895FC01918D828D981761F0A28D90
:1002E000AE0FBF2FB11D5D968C91928D9F5F9F7356
:1002F000928F90E008958FEF9FEF0895FC01918D0C
:10030000828D981731F0828DE80FF11D858D90E078
:1003100008958FEF9FEF0895FC01918D228D892F15
:1003200090E0805C9F4F821B91098F7399270895FD
:1003300083E491E00E948C0121E0892B09F420E004
:10034000822F089580E090E0892B29F00E94980187
:1003500081110C9400000895FC01A48DA80FB92F01
:10036000B11DA35ABF4F2C91848D90E001968F73DD
:100370009927848FA689B7892C93A089B1898C91FC
:10038000837080648C93938D848D981306C002884B
:10039000F389E02D80818F7D80830895EF92FF9215
:1003A0000F931F93CF93DF93EC0181E0888F9B8D98
:1003B0008C8D98131AC0E889F989808185FF15C052
:1003C0009FB7F894EE89FF896083E889F989808175
:1003D0008370806480839FBF81E090E0DF91CF9144
:1003E0001F910F91FF90EF900895F62E0B8D10E066
:1003F0000F5F1F4F0F731127E02E8C8D8E110CC0D5
:100400000FB607FCFACFE889F989808185FFF5CF1F
:10041000CE010E94AC01F1CFEB8DEC0FFD2FF11D51
:10042000E35AFF4FF0829FB7F8940B8FEA89FB895C
:1004300080818062CFCFCF93DF93EC01888D8823BA
:10044000B9F0AA89BB89E889F9898C9185FD03C037
:10045000808186FD0DC00FB607FCF7CF8C9185FF1C
:10046000F2CF808185FFEDCFCE010E94AC01E9CFB4
:10047000DF91CF910895FC0101900020E9F73197B9
:10048000AF01481B590BBC0183E491E00C942E0191
:10049000CF93DF930E943B02EC0182E191E00E9446
:1004A0003B028C0F9D1FDF91CF9108951F920F92F9
:1004B0000FB60F9211242F933F938F939F93AF9377
:1004C000BF9380913B0190913C01A0913D01B0917F
:1004D0003E0130913A0123E0230F2D3758F5019664
:1004E000A11DB11D20933A0180933B0190933C01E3
:1004F000A0933D01B0933E0180913F019091400156
:10050000A0914101B09142010196A11DB11D8093BE
:100510003F0190934001A0934101B0934201BF91EC
:10052000AF919F918F913F912F910F900FBE0F90A0
:100530001F90189526E8230F0296A11DB11DD2CF5A
:100540001F920F920FB60F9211242F933F934F9348
:100550005F936F937F938F939F93AF93BF93EF932B
:10056000FF9383E491E00E94AC01FF91EF91BF9172
:10057000AF919F918F917F916F915F914F913F913B
:100580002F910F900FBE0F901F9018951F920F92F2
:100590000FB60F9211242F938F939F93EF93FF9396
:1005A000E0915301F09154018081E0915901F09163
:1005B0005A0182FD1BC0908180915C018F5F8F7317
:1005C00020915D01821741F0E0915C01F0E0ED5B6C
:1005D000FE4F958F80935C01FF91EF919F918F91DA
:1005E0002F910F900FBE0F901F9018958081F4CF20
:1005F000CF92DF92EF92FF920F931F93E82FF92F84
:1006000005C0015011092109310961F1908196233A
:100610009417B9F305C0015011092109310911F1ED
:10062000908196239413F7CFC12CD12CE12CF12C7F
:100630000AC08FEFC81AD80AE80AF80A0C151D0577
:100640002E053F0579F080818623841791F36C2D68
:100650007D2D8E2D9F2D1F910F91FF90EF90DF909C
:10066000CF90089560E070E080E090E01F910F91DE
:10067000FF90EF90DF90CF900895CF93DF93CDB7A9
:10068000DEB7A1970FB6F894DEBF0FBECDBF78944A
:1006900084B5826084BD84B5816084BD85B5826087
:1006A00085BD85B5816085BD80916E008160809338
:1006B0006E001092810080918100826080938100A1
:1006C00080918100816080938100809180008160B1
:1006D000809380008091B10084608093B10080910C
:1006E000B00081608093B00080917A008460809334
:1006F0007A0080917A00826080937A0080917A00FB
:10070000816080937A0080917A00806880937A007B
:100710001092C10061E082E00E94D80060E083E0B6
:100720000E94D80061E085E00E94D800E09153016A
:10073000F091540182E08083E0914F01F0915001EB
:100740001082E0915101F09152018FEC8083109260
:100750005B01E0915701F091580186E08083E091C0
:100760005501F0915601808180618083E0915501AF
:10077000F0915601808188608083E0915501F0916D
:100780005601808180688083E0915501F091560187
:1007900080818F7D808323E0222E312C3AE0432E0E
:1007A000512C612C712C60E082E00E948C00C10110
:1007B0000197F1F761E082E00E948C0083E290E013
:1007C0000197F1F760E082E00E948C00EDE9F0E033
:1007D0006491E9E8F0E08491E82FF0E0EE0FFF1F6C
:1007E000E859FF4F8591949100E412E42FE030E046
:1007F000462F0E94F802611571058105910529F0C7
:100800006F5F7F4F8F4F9F4F9F700E94090526E9B2
:1008100033E44BE05DE30E946D0520E030E040E012
:100820005FE30E946D050E94D1046B018B0185E19D
:1008300091E00E943B020D2C000CEE08FF08F7FE31
:1008400067C06DE283E491E00E94CE012227332746
:10085000A9012C193D094E095F0919A2CE01819603
:100860007C01CA01B901A30192010E940206605DE8
:10087000F70162937F01211531054105510589F783
:10088000E114F10419F0C7010E943B0280E291E0FB
:100890000E9448020A3011050CF050C084E291E039
:1008A0000E94480261E085E00E948C000E940901DC
:1008B0004B015C0184EFC82EDD24D394E12CF12C94
:1008C0000E940901681979098A099B09683E7340E9
:1008D00081059105A8F3F1E0CF1AD108E108F108EC
:1008E00028EE820E23E0921EA11CB11CC114D1047B
:1008F000E104F10429F780E090E0892B09F453CF5B
:100900000E949801882309F44ECF0E9400004BCF2B
:10091000A701960119A2CE0181967C01CA01B901F5
:10092000A30192010E940206605DF70162937F01BC
:10093000211531054105510589F7A2CF8EE291E0DD
:100940000E94480260E0AFCFE3E4F1E0138212823C
:1009500088EE93E0A0E0B0E084839583A683B7831C
:1009600084E091E09183808385EC90E09587848793
:1009700084EC90E09787868780EC90E0918B808B69
:1009800081EC90E0938B828B82EC90E0958B848B52
:1009900086EC90E0978B868B118E128E138E148EC0
:1009A00008950E94D8046894B1110C9467050895C5
:1009B0000E944C0588F09F5798F0B92F9927B7519E
:1009C000B0F0E1F0660F771F881F991F1AF0BA95F3
:1009D000C9F714C0B13091F00E946605B1E00895E6
:1009E0000C946605672F782F8827B85F39F0B93FD8
:1009F000CCF3869577956795B395D9F73EF49095A6
:100A00008095709561957F4F8F4F9F4F0895E89423
:100A100009C097FB3EF490958095709561957F4F46
:100A20008F4F9F4F9923A9F0F92F96E9BB279395F4
:100A3000F695879577956795B795F111F8CFFAF404
:100A4000BB0F11F460FF1BC06F5F7F4F8F4F9F4F35
:100A500016C0882311F096E911C0772321F09EE893
:100A6000872F762F05C0662371F096E8862F70E0F9
:100A700060E02AF09A95660F771F881FDAF7880FD3
:100A80009695879597F9089557FD9058440F551FEF
:100A900059F05F3F71F04795880F97FB991F61F000
:100AA0009F3F79F087950895121613061406551F77
:100AB000F2CF4695F1DF08C0161617061806991FE3
:100AC000F1CF86957105610508940895E894BB27D8
:100AD00066277727CB0197F908950E9480050C942B
:100AE000F1050E94E30538F00E94EA0520F0952305
:100AF00011F00C94DA050C94E00511240C946705B0
:100B00000E94440570F3959FC1F3950F50E0551F67
:100B1000629FF001729FBB27F00DB11D639FAA2752
:100B2000F00DB11DAA1F649F6627B00DA11D661FA1
:100B3000829F2227B00DA11D621F739FB00DA11DC2
:100B4000621F839FA00D611D221F749F3327A00D7C
:100B5000611D231F849F600D211D822F762F6A2F18
:100B600011249F5750409AF0F1F088234AF0EE0F7D
:100B7000FF1FBB1F661F771F881F91505040A9F7AA
:100B80009E3F510580F00C94DA050C9467055F3F99
:100B9000E4F3983ED4F3869577956795B795F795E6
:100BA000E7959F5FC1F7FE2B880F911D969587955E
:100BB00097F9089597F99F6780E870E060E00895DD
:100BC0009FEF80EC089500240A9416161706180665
:100BD0000906089500240A94121613061406050641
:100BE0000895092E0394000C11F4882352F0BB0FD2
:100BF00040F4BF2B11F460FF04C06F5F7F4F8F4F35
:100C00009F4F0895A1E21A2EAA1BBB1BFD010DC028
:100C1000AA1FBB1FEE1FFF1FA217B307E407F507AC
:100C200020F0A21BB30BE40BF50B661F771F881F88
:100C3000991F1A9469F760957095809590959B011E
:100C4000AC01BD01CF010895EE0FFF1F0590F49197
:080C5000E02D0994F894FFCF98
:100C580000000000CE012E015B011B028C016A011D
:100C68007E010D0A0044697374616E63653A200061
:100C780020636D0042757A7A6572204F4E00427586
:0A0C88007A7A6572204F464600009C
:00000001FF
