:100000000C9463000C948B000C948B000C9485086A
:100010000C9485080C9485080C948B000C948B0030
:100020000C948B000C948B000C948B000C948B0024
:100030000C948B000C948B000C948B000C948B0014
:100040000C94E3070C948B000C9453080C942D082B
:100050000C948B000C948B000C948B000C948B00F4
:100060000C94FD080C948B00000000002400270075
:100070002A0000000008000201000003040700003D
:1000800000000000000000000000230026002900FE
:1000900000000000250028002B00040404040404D0
:1000A0000404020202020202030303030303010227
:1000B00004081020408001020408102001020408F6
:1000C0001020610A1C0E11241FBECFEFD8E0DEBF46
:1000D000CDBF11E0A0E0B1E0E6E3F7E202C0059099
:1000E0000D92AA3FB107D9F728E0AAEFB1E001C00D
:1000F0001D92A738B207E1F710E0C2E6D0E004C0D5
:100100002197FE010E949310C136D107C9F70E94C2
:10011000330B0C948E130C940000833081F028F480
:10012000813099F08230A9F008958730A9F08830A5
:10013000C9F08430B1F4809180008F7D03C080913C
:1001400080008F7780938000089584B58F7784BD79
:10015000089584B58F7DFBCF8091B0008F77809319
:10016000B00008958091B0008F7DF9CFCF93DF93D9
:10017000282F30E0F901EE58FF4F8491F901E25544
:10018000FF4FD491F901E656FF4FC491CC23A1F063
:1001900081110E948D00EC2FF0E0EE0FFF1FEA5757
:1001A000FF4FA591B491EC91ED2381E090E009F42B
:1001B00080E0DF91CF91089580E090E0FACF1F9327
:1001C000CF93DF93282F30E0F901EE58FF4F849151
:1001D000F901E255FF4FD491F901E656FF4FC49162
:1001E000CC23A9F0162F81110E948D00EC2FF0E096
:1001F000EE0FFF1FE057FF4FA591B4918FB7F89412
:10020000EC91111108C0D095DE23DC938FBFDF91F4
:10021000CF911F910895DE2BF8CFCF93DF9390E01D
:10022000FC01E255FF4F249186569F4FFC018491BB
:100230008823C9F090E0880F991FFC01E859FF4F0F
:10024000A591B491FC01E057FF4FC591D491611184
:100250000DC09FB7F8948C91209582238C93888150
:10026000282328839FBFDF91CF910895623051F4F6
:100270009FB7F8943C91822F809583238C93E881DB
:100280002E2BEFCF8FB7F894EC912E2B2C938FBFA2
:10029000EACF3FB7F8948091AF079091B007A09153
:1002A000B107B091B20726B5A89B05C02F3F19F042
:1002B0000196A11DB11D3FBFBA2FA92F982F8827E6
:1002C000BC01CD01620F711D811D911D42E0660FC1
:1002D000771F881F991F4A95D1F708958F929F9293
:1002E000AF92BF92CF92DF92EF92FF924B015C01EF
:1002F0000E9449016B017C010E9449016C197D0932
:100300008E099F09683E734081059105A8F321E09D
:10031000821A9108A108B10888EEC80E83E0D81EA1
:10032000E11CF11C81149104A104B10429F7FF9090
:10033000EF90DF90CF90BF90AF909F908F900895F7
:1003400008950895AF92BF92CF92DF92EF92FF92FD
:100350000F931F93CF93DF936C017B018B01040FED
:10036000151FEB015E01AE18BF08C017D10759F089
:100370006991D601ED91FC910190F081E02DC601CB
:100380000995892B79F7C501DF91CF911F910F91C5
:10039000FF90EF90DF90CF90BF90AF900895FC0159
:1003A000538D448D252F30E0842F90E0821B930BDA
:1003B000541710F0CF96089501970895FC01918D80
:1003C000828D981761F0A28DAE0FBF2FB11D5D9683
:1003D0008C91928D9F5F9F73928F90E008958FEF25
:1003E0009FEF0895FC01918D828D981731F0828DD9
:1003F000E80FF11D858D90E008958FEF9FEF089530
:10040000FC01918D228D892F90E0805C9F4F821B93
:1004100091098F739927089583EB97E00E9400025A
:1004200021E0892B09F420E0822F089580E090E0FC
:10043000892B29F00E940C0281110C940000089570
:10044000FC01A48DA80FB92FB11DA35ABF4F2C9149
:10045000848D90E001968F739927848FA689B78940
:100460002C93A089B1898C91837080648C93938D37
:10047000848D981306C00288F389E02D80818F7DDA
:1004800080830895EF92FF920F931F93CF93DF9392
:10049000EC0181E0888F9B8D8C8D98131AC0E889C0
:1004A000F989808185FF15C09FB7F894EE89FF898F
:1004B0006083E889F98980818370806480839FBF2D
:1004C00081E090E0DF91CF911F910F91FF90EF902D
:1004D0000895F62E0B8D10E00F5F1F4F0F7311273D
:1004E000E02E8C8D8E110CC00FB607FCFACFE88978
:1004F000F989808185FFF5CFCE010E942002F1CFDE
:10050000EB8DEC0FFD2FF11DE35AFF4FF0829FB7EB
:10051000F8940B8FEA89FB8980818062CFCFCF93DB
:10052000DF93EC01888D8823B9F0AA89BB89E8891B
:10053000F9898C9185FD03C0808186FD0DC00FB6C1
:1005400007FCF7CF8C9185FFF2CF808185FFEDCF3F
:10055000CE010E942002E9CFDF91CF910895209132
:10056000EE023091EF022817390771F49091EC02F6
:100570008091ED02981741F0E091EC02F0E0E45533
:10058000FD4F808190E008958FEF9FEF08950895CB
:10059000EF92FF920F931F93CF93DF93DC015C9652
:1005A000ED90FC905D97E114F10479F481E090E026
:1005B00013969C938E93129790E080E0DF91CF91F9
:1005C0001F910F91FF90EF9008955196ED91FC913E
:1005D000529750968C915097982F90950FB75E96A2
:1005E0002C915E97122F127021FD6095F894208156
:1005F000112319F1282B2083E7012197F1F728E037
:10060000462F50E0308160FF1AC0382B3083E7015D
:100610002197F1F7BA0175956795215089F7112354
:1006200081F08081892380830FBF5C968D919C919E
:100630000197F1F781E090E0C1CF2923DCCF392386
:10064000E5CF9081892BEFCF2091EE023091EF0220
:100650002817390761F48091ED022091EC0290E0B7
:10066000805C9F4F821B91098F739927089590E0BA
:1006700080E008952091EE023091EF0228173907AB
:10068000B9F49091EC028091ED02981789F0E09115
:10069000EC02F0E0E455FD4F80812091EC0230E067
:1006A0002F5F3F4F2F7333272093EC0290E0089584
:1006B0008FEF9FEF0895089520913B02260F332777
:1006C000331F21323105ECF420918402FC0190E0CB
:1006D00080E0243069F082E00895A0913B022191EE
:1006E000AC01455E5D4FA40FB52FB11D2C93019653
:1006F000861798F380913B02680F60933B0280E07D
:10070000089581E008951092840281E0809383022D
:1007100010925E0261E082E10E94DF0061E083E10D
:100720000E94DF00E9EBF0E080818E7F8083808192
:100730008D7F808388E48093B80085E48093BC003B
:100740000895CF93DF9391E090931A028823B9F034
:10075000C091B800D091BA008091BC008A7B809390
:10076000BC0060E082E10E94DF0060E083E10E9463
:10077000DF000E948303D093BA00C093B800DF91DA
:10078000CF910895E091F7028091F602E81730F4D6
:10079000F0E0E650FE4F808190E008958FEF9FEFEC
:1007A00008959091F7028091F6022FEF3FEF98178E
:1007B00048F4E92FF0E0E650FE4F208130E09F5FE3
:1007C0009093F702C90108958091F6029091F70283
:1007D000891B990B0895CF92DF92EF92FF920F93AE
:1007E0001F93CF93DF937C01CB018A0120918A0272
:1007F000222389F0EB016B01C40ED51ECC15DD055B
:1008000069F06991D701ED91FC910190F081E02DA3
:10081000C7010995F3CF642F0E945C03C801DF91E3
:10082000CF911F910F91FF90EF90DF90CF9008959F
:10083000CF93DF931F92CDB7DEB7698320918A02F1
:100840002223F9F02091F402203258F021E030E028
:10085000FC013383228390E080E00F90DF91CF9101
:1008600008958091F502E82FF0E0E557FD4F99815A
:1008700090838F5F8093F5028093F40281E090E093
:10088000ECCF61E0CE0101960E945C03F7CFCF92DE
:10089000DF92EF92FF920F931F93CF93DF93FC01B0
:1008A000C48121E020938A02C093AB021092F5022A
:1008B0001092F4028385682B80E598E00E9418046A
:1008C000D091F402D13208F092C00E9449016B012C
:1008D0007C0180918402811165C082E08093840252
:1008E00081E0809383028FEF8093820210928102D5
:1008F000D0938002ABE8B2E0E0E6F2E080E0D8130B
:1009000085C010925F0280915F02CC0FC82BC0930C
:100910005F0280915E02813009F07CC010925E021D
:100920000E9449016B017C0180915F028093BB00B2
:100930008091860290918702A0918802B0918902ED
:10094000892B8A2B8B2B99F00E94490100918602FA
:100950001091870220918802309189026C197D09DB
:100960008E099F090617170728073907E0F18091BC
:10097000BC0083FDD9CF85EC8093BC000E94490167
:100980006B017C0180918402823009F445C0809122
:1009900082028F3F61F180918202803241F1809129
:1009A000820225C08091860290918702A0918802E0
:1009B000B0918902892B8A2B8B2B09F48ACF0E9454
:1009C000490100918602109187022091880230919E
:1009D00089026C197D098E099F09061717072807D8
:1009E000390708F076CF809185020E94A10310920A
:1009F000F5021092F40210928A02DF91CF911F91BA
:100A00000F91FF90EF90DF90CF9008959D9191937B
:100A10008F5F75CF85EEB0CF80918602909187026F
:100A2000A0918802B0918902892B8A2B8B2B09F423
:100A3000A9CF0E944901009186021091870220915E
:100A40008802309189026C197D098E099F09061769
:100A500017072807390708F095CFC5CF90E080E049
:100A600008950F931F93CF938C01C62F0E944704C4
:100A70006C2F6460C8010E9447046C2F6B7FC80113
:100A80000E94470483EC90E00197F1F7CF911F910A
:100A90000F9108950F931F93CF93DF938C01D62F5F
:100AA000C42F607F642B0E94310580E1D89FB00184
:100AB00011246C2BC801DF91CF911F910F910C94E1
:100AC000310540E061E08BE798E00E944A058BE346
:100AD0009FE10197F1F70895CF93DF93CDB7DEB78C
:100AE00028970FB6F894DEBF0FBECDBF98E0E4E0C4
:100AF000F1E0DE01119601900D929A95E1F7909147
:100B00008308981708F48FEF90E0880F991F21E071
:100B100030E02C0F3D1F820F931FFC016081606845
:100B200040E08BE798E028960FB6F894DEBF0FBE42
:100B3000CDBFDF91CF910C944A05CF93DF938230E4
:100B400028F09091800898609093800880938308A3
:100B500062E370E080E090E00E946E0160918608A0
:100B60008BE798E00E94470468EE73E080E090E035
:100B70000E946E0160E38BE798E00E943105CBE4B0
:100B8000D6E4CE010197F1F760E38BE798E00E948D
:100B900031052197F1F760E38BE798E00E9431057A
:100BA00083E592E00197F1F760E28BE798E00E941D
:100BB000310560918008606240E08BE798E00E9418
:100BC0004A0584E08093810840E06CE08BE798E080
:100BD0000E944A050E94610582E08093820840E0FD
:100BE00066E08BE798E00E944A0540E062E08BE710
:100BF00098E00E944A058BE39FE10197F1F7DF91AE
:100C0000CF91089541E00E944A0581E090E0089567
:100C1000FB0101900020E9F73197AF01461B570B0C
:100C2000DC01ED91FC910280F381E02D09948F921B
:100C30009F92AF92BF92EF92FF920F931F93CF9329
:100C4000DF93CDB7DEB7A1970FB6F894DEBF0FBE26
:100C5000CDBF7C01FA01CB0119A2223008F42AE0B1
:100C60008E010F5D1F4F822E912CB12CA12CBF0144
:100C7000A50194010E947110F901CA016A300CF5B6
:100C8000605DD8016E938D01232B242B252B79F7E2
:100C900090E080E0109721F0BD01C7010E94080696
:100CA000A1960FB6F894DEBF0FBECDBFDF91CF91F6
:100CB0001F910F91FF90EF90BF90AF909F908F90FA
:100CC0000895695CDECF4F925F926F927F928F9210
:100CD0009F92AF92BF92EF92FF921F93CF93DF93B9
:100CE0007C014A015B01722E20E030E0A901CB01BA
:100CF000B4010E94A50ED0E0C0E087FF0EC0D7016E
:100D0000ED91FC910190F081E02D6DE2C701099514
:100D1000EC01B7FAB094B7F8B09410E060E070E07E
:100D200080E09FE3171541F020E030E040E251E41D
:100D30000E94AA0E1F5FF6CFA50194010E94390EF2
:100D40004B015C010E94230F2B013C012AE0BC01F6
:100D5000A201C7010E941706C80FD91F1123E9F18C
:100D6000C301B2010E94520F9B01AC01C501B40145
:100D70000E94380E4B015C01D701ED91FC9101906E
:100D8000F081E02D6EE2C7010995C80FD91F1150FF
:100D900020F120E030E040E251E4C501B4010E94BE
:100DA00004102B013C010E94230F4B01B12CA12CFC
:100DB0002AE0B501A401C7010E941706C80FD91F78
:100DC000C501B4010E94520F9B01AC01C301B201E5
:100DD0000E94380E4B015C01DACFCE01DF91CF913A
:100DE0001F91FF90EF90BF90AF909F908F907F905A
:100DF0006F905F904F900895CF93DF93BC018CE587
:100E000098E00E940806EC016EE471E08CE598E041
:100E10000E9408068C0F9D1FDF91CF9108950C94BE
:100E2000080685ED8093BC00809186029091870230
:100E3000A0918802B09189020796A11DB11D23E0FF
:100E4000B695A795979587952A95D1F72091BC00DF
:100E500024FD03C0109284020895409186025091AF
:100E600087026091880270918902452B462B472B9F
:100E700069F30097A105B10541F02AE22A95F1F73F
:100E800000C00197A109B109E1CF809185020C94BE
:100E9000A1030F931F93CF93DF93C091A807D09125
:100EA000A907C436D1050CF042C08C0161E571E0A0
:100EB0000E949910892B59F52CE02C9FC0012D9F81
:100EC000900D112465E571E088509D4F0E94A2109D
:100ED0002196D093A907C093A80760E771E08CE53D
:100EE00098E00E940F072091A8073091A907215090
:100EF00031094CE0429FC001439F900D112488505E
:100F00009D4FDF91CF911F910F910C94FC0660E6ED
:100F100071E0C8010E949910892BD1F62CE02C9F1A
:100F2000C0012D9F900D112464E671E0CDCFDF91BB
:100F3000CF911F910F9108950F931F9360E082E06E
:100F40000E94DF0083E090E00197F1F761E082E02A
:100F50000E94DF0083E290E00197F1F760E082E019
:100F60000E94DF00E1EBF0E06491EDE9F0E0E49154
:100F7000F0E0EE0FFF1FEA57FF4F8591949100E4D8
:100F800012E42FE030E0462F0E941C0A6115710523
:100F90008105910529F06F5F7F4F8F4F9F4F9F70A5
:100FA0000E94540F26E933E44BE05DE30E940410F5
:100FB00020E030E040E05FE30E9404100E941C0F3C
:100FC0001F910F9108951F920F920FB60F92112447
:100FD0002F933F938F939F93AF93BF938091AB07D2
:100FE0009091AC07A091AD07B091AE073091AA07E0
:100FF00023E0230F2D3758F50196A11DB11D209335
:10100000AA078093AB079093AC07A093AD07B0936A
:10101000AE078091AF079091B007A091B107B09152
:10102000B2070196A11DB11D8093AF079093B00741
:10103000A093B107B093B207BF91AF919F918F91E9
:101040003F912F910F900FBE0F901F90189526E89B
:10105000230F0296A11DB11DD2CF1F920F920FB682
:101060000F9211242F933F934F935F936F937F932E
:101070008F939F93AF93BF93EF93FF9383EB97E08F
:101080000E942002FF91EF91BF91AF919F918F91AC
:101090007F916F915F914F913F912F910F900FBE74
:1010A0000F901F9018951F920F920FB60F92112458
:1010B0002F938F939F93EF93FF93E091C307F0914A
:1010C000C4078081E091C907F091CA0782FD1BC067
:1010D00090818091CC078F5F8F732091CD0782170D
:1010E00041F0E091CC07F0E0ED54F84F958F8093FC
:1010F000CC07FF91EF919F918F912F910F900FBE91
:101100000F901F9018958081F4CF1F920F920FB609
:101110000F9211242F933F934F935F936F937F937D
:101120008F939F93AF93BF93EF93FF93E091EE0262
:10113000F091EF02309749F0A685B7858585968DA9
:1011400091FF14C09C918923A1F4FF91EF91BF916D
:10115000AF919F918F917F916F915F914F913F914F
:101160002F910F900FBE0F901F9018959C9189237F
:1011700061F7A389B4899C918589809589238C9393
:10118000868997890197F1F7608D718DA685B7855E
:10119000558538E020E0CB010197F1F7822F90E0F0
:1011A00095958795282F4C91452309F0206831505B
:1011B00091F7868D81FD20958091ED0290E001965A
:1011C0008F7399273091EC02381799F0A091ED02B6
:1011D000B0E0A455BD4F2C938093ED02828D938D8A
:1011E0000197F1F7A389B4898C919589892B8C9308
:1011F000ACCF868D8160868FF1CF1F920F920FB694
:101200000F9211242F933F934F935F936F937F938C
:101210008F939F93AF93BF93EF93FF938091B90008
:10122000887F803609F44AC0F0F5883209F4A7C0F7
:1012300018F5803109F49BC0B8F4882309F4F9C08B
:10124000883009F494C0FF91EF91BF91AF919F91C5
:101250008F917F916F915F914F913F912F910F905F
:101260000FBE0F901F901895883109F488C0803206
:1012700051F78093820214C0803409F49DC040F479
:101280008033B9F38833F9F68093820285ECB0C0DD
:10129000803509F485C0883509F496C0883499F6FC
:1012A0000E941107D0CF883909F48CC038F58837EF
:1012B00029F050F4883611F0803729F683E08093C6
:1012C000840210925D0257C0883809F47BC08039CF
:1012D00019F0803809F0B7CF80915D02803208F0B4
:1012E00071C0E0915D0281E08E0F80935D0280917C
:1012F000BB00F0E0E35CFD4F80833DC0803B39F0F4
:10130000E0F4803A09F479C0883A09F09CCF84E08F
:101310008093840210923C0210923B02E091F20210
:10132000F091F302099580913B0281110FC081E099
:1013300080933B0210921B0209C0803C09F4A6CFA7
:10134000883C09F4A3CF883B09F07DCFE0913C02B3
:1013500081E08E0F80933C02F0E0E55EFD4F8081DE
:101360008093BB0090913C0280913B0229C0809108
:101370005F028093BB0085EC8093BC0064CF9091AA
:10138000810280918002981758F5E091810281E0F6
:101390008E0F80938102F0E0E05AFD4F8081E9CF0B
:1013A000E091810281E08E0F809381028091BB00E9
:1013B000F0E0E05AFD4F808390918102809180029D
:1013C0009817C8F285E8D8CFE091810281E08E0FAE
:1013D000809381028091BB00F0E0E05AFD4F808352
:1013E0008091830281115CCF81E080935E0284EA68
:1013F0008093BC001092840226CF85EC8093BC00C1
:101400001092840280915D02803230F4E0915D029E
:10141000F0E0E35CFD4F108260915D0270E0E091CE
:10142000F002F091F1028DE392E0099510925D02D5
:101430000ACF1092820234CFCF92DF92EF92FF92C6
:101440000F931F93E82FF92F05C0015011092109AF
:10145000310961F1908196239417B9F305C00150C9
:1014600011092109310911F1908196239413F7CFC5
:10147000C12CD12CE12CF12C0AC08FEFC81AD80A4C
:10148000E80AF80A0C151D052E053F0579F0808144
:101490008623841791F36C2D7D2D8E2D9F2D1F910A
:1014A0000F91FF90EF90DF90CF90089560E070E093
:1014B00080E090E01F910F91FF90EF90DF90CF9030
:1014C00008951092B6071092B50788EE93E0A0E059
:1014D000B0E08093B7079093B807A093B907B09393
:1014E000BA0720E131E03093B4072093B30725EC2D
:1014F00030E03093C0072093BF0724EC30E03093F6
:10150000C2072093C10720EC30E03093C40720933A
:10151000C30721EC30E03093C6072093C50722ECC7
:1015200030E03093C8072093C70726EC30E03093B3
:10153000CA072093C9071092CC071092CD071092CA
:10154000CE071092CF071092530810925208809342
:10155000540890935508A0935608B093570822E278
:1015600031E0309351082093500810927E08109279
:101570007D0826E431E030937C0820937B0820E24C
:1015800020937F0820E12093840822E0209385089F
:101590001092860810925F0810925E08809360088F
:1015A00090936108A0936208B093630884E391E08C
:1015B00090935D0880935C081092730810927208F3
:1015C000109275081092740810927708109276089D
:1015D000109279081092780860917A086E7F6D7F7A
:1015E00060937A086695617081E0682787E00E94C1
:1015F000DF0061E087E00E940D01E5EBF0E0E4919F
:10160000E0936C08E1EAF0E0E491F0E0EE0FFF1FF8
:10161000E057FF4F8591949190936E0880936D08E9
:1016200060E086E00E940D0180917A0881FD04C08F
:1016300061E086E00E94DF0086E080936808E4EBCA
:10164000F0E0E491E0936908E0EAF0E0E491F0E092
:10165000EE0FFF1FEA57FF4F8591949190936B080F
:1016600080936A080895789484B5826084BD84B5B7
:10167000816084BD85B5826085BD85B5816085BD8D
:1016800080916E00816080936E0010928100809145
:1016900081008260809381008091810081608093CD
:1016A0008100809180008160809380008091B100F2
:1016B00084608093B1008091B00081608093B0001D
:1016C00080917A00846080937A0080917A008260B1
:1016D00080937A0080917A00816080937A00809173
:1016E0007A00806880937A001092C100E091C3076D
:1016F000F091C40782E08083E091BF07F091C007BA
:101700001082E091C107F091C2078FEC80831092A4
:10171000CB07E091C707F091C80786E08083E0918E
:10172000C507F091C607808180618083E091C5077D
:10173000F091C607808188608083E091C507F091B1
:10174000C607808180688083E091C507F091C60755
:1017500080818F7D80831092770810927608109296
:1017600075081092740810927308109272088DE92F
:1017700091E0909379088093780890916808963169
:1017800008F047C02DEB30E03093730820937208C7
:101790002BE931E030937508209374082CE231E096
:1017A00030937708209376082091680084E0983081
:1017B00048F031E09E3008F430E081E001C0880F4D
:1017C0003A95EAF7822B809368002DE630E0983056
:1017D00050F02BE630E09E3030F02CE630E09631D1
:1017E00010F030E020E03093700820936F08292F2C
:1017F00030E0983008F0AFC181E001C0880F9A95C1
:10180000EAF78093710880917808909179080197A0
:10181000F1F78091760890917708892B49F1E09152
:10182000EE02F091EF0288E0EC35F80709F130970D
:1018300039F0A389B4899C918589809589238C93FB
:1018400080917A088E7F80937A081092ED02109230
:10185000EC028CE598E09093EF028093EE02E09129
:101860006F08F0917008808190917108892B8083B6
:1018700082E00E949D051092F7021092F6021092EB
:10188000F5021092F4020E94830380EA91E09093A3
:10189000F3028093F20281EA91E09093F102809347
:1018A000F00210928008809185080E949D0588E0D2
:1018B0008093860860E08BE798E00E94470461E02F
:1018C00082E00E940D0160E083E00E940D0161E072
:1018D00085E00E940D0162E084E00E940D0162E05B
:1018E00088E00E940D0162E089E00E940D0162E043
:1018F0008AE00E940D0162E08BE00E940D0162E02F
:101900008CE00E940D016BE771E08BE798E00E948C
:101910000F0768EE73E080E090E00E946E010E9485
:10192000610580E00E946C056BE871E08BE798E050
:101930000E940F0726E046EE57E865E471E48BE766
:1019400098E00E94630681E00E946C056EED71E0F4
:101950008BE798E00E940F0726E047EE57E863EB1D
:1019600072E48BE798E00E94630660ED77E080E028
:1019700090E00E946E010E946105CCE9D1E09CE0FC
:10198000B92E00E010E00E949C076B017C01809161
:10199000000190910101A0910201B0910301C816CC
:1019A000D906EA06FB0651F161E971E08CE598E0A1
:1019B0000E940F072AE0B701A601F7FE0DC06DE2F5
:1019C0008CE598E00E94C80244275527BA014C19BB
:1019D0005D096E097F092AE08CE598E00E941706F0
:1019E0006EE471E08CE598E00E940806C092000168
:1019F000D0920101E0920201F092030194E1C91634
:101A0000D104E104F10474F461E085E00E94DF0098
:101A100068EE73E080E090E00E946E0160E085E097
:101A20000E94DF0088E00E94B600892B09F048C0C0
:101A30000E949C072091A8073091A9072436310500
:101A4000CCF59F938F937F936F93DF93CF931F92E8
:101A5000BF92B29EC001B39E900D112488509D4F3D
:101A60009F938F930E94A9108091A8079091A90736
:101A700001969093A9078093A80760E771E08CE531
:101A800098E00E940F072091A8073091A9072150E4
:101A90003109B29EC001B39E900D112488509D4F14
:101AA0000E94FC068DB79EB70A960FB6F8949EBFAB
:101AB0000FBE8DBF64EF71E080E090E00E946E0188
:101AC00089E00E94B600892B51F481E591E00E94E3
:101AD000490764EF71E080E090E00E946E018AE0C7
:101AE0000E94B600892B51F480E691E00E944907DC
:101AF00064EF71E080E090E00E946E018BE00E9454
:101B0000B6007C01892BF1F58091A8079091A90777
:101B1000892B71F188EFC82E82E0D82E8091A8071A
:101B20009091A907E816F9063CF560EC71E08CE5A8
:101B300098E00E940F07C6010E94FC0664EF71E066
:101B400080E090E00E946E019FEFE91AF90A8CE0B4
:101B5000C80ED11CE3CF9E3040F42850310981E0FB
:101B600001C0880F2A95EAF74CCE2E503109F7CFE5
:101B70008EEA91E00E94FC0664EF71E080E090E064
:101B80000E946E0184E00E94B600892B81F56CEC06
:101B900071E08CE598E00E940F076BE871E08CE53E
:101BA00098E00E940F0726E046EE57E865E471E4EE
:101BB0008CE598E00E9463066CED71E08CE598E09E
:101BC0000E940F0726E047EE57E863EB72E48CE5CE
:101BD00098E00E9463066EE471E08CE598E00E9454
:101BE000080664EF71E080E090E00E946E018CE0F6
:101BF0000E94B600892B71F41092A9071092A807D1
:101C000084EE91E00E94FC0664EF71E080E090E0D9
:101C10000E946E0164E670E080E090E00E946E0138
:101C20000115110509F4AFCE0E940C02882309F4B6
:101C3000AACE0E940000A7CE84E391E090935D08B5
:101C400080935C088091EE029091EF028C55984051
:101C500071F4E0916F08F0917008908180917108A3
:101C60008095892380831092EF021092EE020895EE
:101C70005058BB27AA270E94500E0C94CA0F0E94EE
:101C8000BC0F38F00E94C30F20F039F49F3F19F4C5
:101C900026F40C94B90F0EF4E095E7FB0C94B30F07
:101CA000E92F0E94DB0F58F3BA1762077307840706
:101CB000950720F079F4A6F50C94FD0F0EF4E0954D
:101CC0000B2EBA2FA02D0B01B90190010C01CA01F6
:101CD000A0011124FF27591B99F0593F50F4503EA1
:101CE00068F11A16F040A22F232F342F4427585F93
:101CF000F3CF469537952795A795F0405395C9F7AB
:101D00007EF41F16BA0B620B730B840BBAF0915062
:101D1000A1F0FF0FBB1F661F771F881FC2F70EC001
:101D2000BA0F621F731F841F48F4879577956795D4
:101D3000B795F7959E3F08F0B0CF9395880F08F0C0
:101D40009927EE0F9795879508950E948F0F08F4B5
:101D500081E008950E94BE0E0C94CA0F0E94C30F2A
:101D600058F00E94BC0F40F029F45F3F29F00C941A
:101D7000B30F51110C94FE0F0C94B90F0E94DB0F9E
:101D800068F39923B1F3552391F3951B550BBB27AA
:101D9000AA2762177307840738F09F5F5F4F220FEF
:101DA000331F441FAA1FA9F335D00E2E3AF0E0E8E6
:101DB00032D091505040E695001CCAF72BD0FE2F30
:101DC00029D0660F771F881FBB1F261737074807C4
:101DD000AB07B0E809F0BB0B802DBF01FF2793587C
:101DE0005F4F3AF09E3F510578F00C94B30F0C947E
:101DF000FE0F5F3FE4F3983ED4F3869577956795A1
:101E0000B795F7959F5FC9F7880F911D96958795B0
:101E100097F90895E1E0660F771F881FBB1F6217CF
:101E200073078407BA0720F0621B730B840BBA0B8D
:101E3000EE1F88F7E09508950E94230F6894B11172
:101E40000C94FE0F08950E94E30F88F09F5798F0BE
:101E5000B92F9927B751B0F0E1F0660F771F881FAF
:101E6000991F1AF0BA95C9F714C0B13091F00E94C9
:101E7000FD0FB1E008950C94FD0F672F782F882790
:101E8000B85F39F0B93FCCF3869577956795B395F0
:101E9000D9F73EF490958095709561957F4F8F4F5F
:101EA0009F4F0895E89409C097FB3EF49095809564
:101EB000709561957F4F8F4F9F4F9923A9F0F92F10
:101EC00096E9BB279395F695879577956795B7958E
:101ED000F111F8CFFAF4BB0F11F460FF1BC06F5F74
:101EE0007F4F8F4F9F4F16C0882311F096E911C086
:101EF000772321F09EE8872F762F05C0662371F0A7
:101F000096E8862F70E060E02AF09A95660F771FBA
:101F1000881FDAF7880F9695879597F90895990F96
:101F20000008550FAA0BE0E8FEEF16161706E807A3
:101F3000F907C0F012161306E407F50798F0621BC4
:101F4000730B840B950B39F40A2661F0232B242B99
:101F5000252B21F408950A2609F4A140A6958FEFB8
:101F6000811D811D089597F99F6780E870E060E00A
:101F700008959FEF80EC089500240A941616170622
:101F800018060906089500240A941216130614066A
:101F900005060895092E0394000C11F4882352F0CD
:101FA000BB0F40F4BF2B11F460FF04C06F5F7F4F85
:101FB0008F4F9F4F089557FD9058440F551F59F06C
:101FC0005F3F71F04795880F97FB991F61F09F3F26
:101FD00079F087950895121613061406551FF2CF4F
:101FE0004695F1DF08C0161617061806991FF1CF9F
:101FF00086957105610508940895E894BB276627C6
:102000007727CB0197F908950E9417100C94CA0FF7
:102010000E94BC0F38F00E94C30F20F0952311F0EE
:102020000C94B30F0C94B90F11240C94FE0F0E9462
:10203000DB0F70F3959FC1F3950F50E0551F629F22
:10204000F001729FBB27F00DB11D639FAA27F00D11
:10205000B11DAA1F649F6627B00DA11D661F829F38
:102060002227B00DA11D621F739FB00DA11D621F1D
:10207000839FA00D611D221F749F3327A00D611D3A
:10208000231F849F600D211D822F762F6A2F11241C
:102090009F5750409AF0F1F088234AF0EE0FFF1F4F
:1020A000BB1F661F771F881F91505040A9F79E3FA6
:1020B000510580F00C94B30F0C94FE0F5F3FE4F3D6
:1020C000983ED4F3869577956795B795F795E795FC
:1020D0009F5FC1F7FE2B880F911D9695879597F905
:1020E0000895A1E21A2EAA1BBB1BFD010DC0AA1F59
:1020F000BB1FEE1FFF1FA217B307E407F50720F071
:10210000A21BB30BE40BF50B661F771F881F991FEB
:102110001A9469F760957095809590959B01AC0134
:10212000BD01CF010895EE0FFF1F0590F491E02D42
:102130000994FB01DC018D91019080190110D9F304
:10214000990B0895FB01DC0101900D920020E1F74D
:102150000895AEE0B0E0EFEAF0E10C9465130D896C
:102160001E898F89988D26E02C831A83098397FF17
:1021700002C080E090E801979E838D83AE01455EAA
:102180005F4F698D7A8DCE0101960E94D9104D81E5
:102190005E8157FD0AC02F813885421753070CF422
:1021A0009A01020F131FF80110822E96E4E00C949E
:1021B0008113ABE0B0E0EFEDF0E10C9457137C013C
:1021C0003B018A01FC0117821682838181FFC8C10D
:1021D000CE0101965C01F7019381F30193FD859196
:1021E00093FF81913F01882309F453C1853239F46B
:1021F00093FD859193FF81913F01853229F4B701C9
:1022000090E00E94C912E7CF912C212C312CFFE1E4
:10221000F31538F08B3211F190F4803209F18332EA
:1022200029F137FC3CC020ED280F2A3050F536FE4E
:1022300020C08AE0989E200D1124922E06C08D3277
:1022400091F0803371F7689430F8F30193FD859134
:1022500093FF81913F018111DACF21C0689431F859
:10226000689432F8F2CF689433F8EFCF689434F87A
:10227000ECCFEAE02E9E200D1124222E689435F832
:10228000E4CF8E3229F436FC04C1689436F8DDCFF1
:102290008C3619F4689437F8D8CF8836B1F2982F75
:1022A0009F7D95549330E0F08336A1F18337C1F1DF
:1022B000833509F063C02801F2E04F0E511CF8018C
:1022C000C080D180692D70E036FC02C06FEF7FEFD7
:1022D000C6010E94B3124C01689437F882010AC00B
:1022E0000C5F1F4FFFE3F98388248394912C6501D1
:1022F000E89437F833FE2DC0522C8114910471F507
:10230000552009F468CFB70180E290E00E94C9121D
:102310005A94F6CFF801808189830E5F1F4FE4CF76
:102320002801F2E04F0E511CF801C080D180692DC8
:1023300070E036FC02C06FEF7FEFC6010E94BE1254
:102340004C018201D5CFB70180E290E00E94C91212
:102350002A942814190409F0B0F7CECFF60137FCFF
:10236000859137FE81916F01B70190E00E94C912FB
:1023700051105A94F1E08F1A9108BFCF843619F0AA
:10238000893609F077C0F80137FE6BC06081718132
:10239000828193810C5F1F4FF32DFF763F2E97FFB5
:1023A00009C090958095709561957F4F8F4F9F4F95
:1023B000689437F82AE030E0A5010E94F912C82E8F
:1023C000CA188C2C432C36FE0CC0E89440F8C91473
:1023D00040F434FE05C032FC03C0F32DFE7E4F2EC8
:1023E000892C44FE95C0FE01EC0DF11D80818033E7
:1023F00009F087C0242D297E422E842D8870582E06
:1024000043FC95C040FE8FC09C2C821418F42C0C09
:10241000922C981844FE91C0B70180E390E00E948E
:10242000C91242FE09C088E790E041FE02C088E57B
:1024300090E0B7010E94C912C91408F48AC0CA9476
:10244000D12C9FEFC91AD90ACA0CDB1CF601829164
:102450006F01B70190E00E94C912AC14BD04B1F73E
:102460004FCF60817181072E000C880B990B0E5F96
:102470001F4F92CFD32CE894D4F82AE030E0853770
:1024800039F1232D297FD22E8F3601F148F488357A
:10249000A9F0F701868197812B96E2E10C947313E2
:1024A000803749F08837A9F7D4FE02C06894D2F883
:1024B00020E130E00DC06894D4F8F6CF34FE03C0BC
:1024C000822F8660D82E20E132E002C028E030E082
:1024D000F801D7FE0FC060817181828193810C5F0A
:1024E0001F4FA5010E94F912C82ECA183D2CE8946E
:1024F00037F867CF6081718190E080E00E5F1F4FF9
:10250000F0CF42FC02C0839478CF8394839475CF3C
:10251000842D867809F471CFF6CFB70180E290E080
:102520000E94C91283948214C0F3512C73CF522C91
:102530005818821408F46ECFF8CF842D867809F4E9
:102540007BCF8BE241FE80E247FC8DE2B70190E059
:1025500071CFB70180E390E00E94C9129A946CCFCA
:102560008FEF9FEF99CFFC010590615070400110F3
:10257000D8F7809590958E0F9F1F0895FC016150AC
:10258000704001900110D8F7809590958E0F9F1F95
:1025900008950F931F93CF93DF93182F092FEB010B
:1025A0008B8181FD09C01FEF0FEF812F902FDF91ED
:1025B000CF911F910F91089582FF14C02E813F810A
:1025C0008C819D81281739073CF4E881F981CF017E
:1025D00001969983888310838E819F8101969F83C2
:1025E0008E83E3CFE885F985812F0995892BA1F3A7
:1025F000DACFFA01AA27283051F1203181F1E8948D
:102600006F936E7F6E5F7F4F8F4F9F4FAF4FB1E0E5
:102610003ED0B4E03CD0670F781F891F9A1FA11DE0
:10262000680F791F8A1F911DA11D6A0F711D811DE1
:10263000911DA11D20D009F468943F912AE0269FA6
:1026400011243019305D3193DEF6CF010895462F05
:102650004770405D4193B3E00FD0C9F7F6CF462FE6
:102660004F70405D4A3318F0495D31FD405241934F
:1026700002D0A9F7EACFB4E0A6959795879577950C
:102680006795BA95C9F700976105710508959B0193
:10269000AC010A2E06945795479537952795BA951C
:1026A000C9F7620F731F841F951FA01D08952F92F5
:1026B0003F924F925F926F927F928F929F92AF92D2
:1026C000BF92CF92DF92EF92FF920F931F93CF931F
:1026D000DF93CDB7DEB7CA1BDB0B0FB6F894DEBFB6
:1026E0000FBECDBF09942A88398848885F846E84DC
:1026F0007D848C849B84AA84B984C884DF80EE8026
:10270000FD800C811B81AA81B981CE0FD11D0FB62E
:10271000F894DEBF0FBECDBFED01089510E0C2E614
:10272000D0E004C0FE010E9493102196C336D10769
:06273000C9F7F894FFCF89
:10273600FFFFFFFF000040001400540000000000EF
:102746004202A201CF018F020002DE01F201000067
:1027560000001804EB032E05C702E403D103C203ED
:1027660000000000C802A2012E05C70224033A0396
:10277600AF02000000000206A2012E055B030D0A4F
:10278600004C3930005475726E204C65667420001A
:10279600523930005475726E205269676874200091
:1027A6005265636F726465643A2000496E697469A4
:1027B600616C697A696E672E2E2E004C61742D3E0F
:1027C6000044697374616E63653A20003720537460
:1027D60065707320466420256C6420636D004E6F1F
:1027E6002070617468207265636F726465642E0080
:1027F600457865637574696E673A20004C6F63614E
:1028060074696F6E2053656E743A20002C204C6FED
:102816006E2D3E00506174682068617320626565A4
:0A2826006E2072657365742E0000C9
:00000001FF
